:020000040800F2
:10000000C808002001010008B11B00088112000887
:10001000D91A0008950B0008792B00080000000091
:10002000000000000000000000000000FD270008A4
:10003000B10D000800000000AD260008E928000806
:100040001B0100081B0100081B0100081B01000820
:100050001B0100081B0100081B0100081B01000810
:100060001B0100081B0100081B0100081B01000800
:100070001B0100081B0100081B0100081B010008F0
:100080001B0100081B0100081B0100081B010008E0
:100090001B0100081B0100081B0100081B010008D0
:1000A0001B0100081B0100081B0100081B010008C0
:1000B0001B0100081B0100081B0100081B010008B0
:1000C0001B0100081B0100081B0100081B010008A0
:1000D0001B0100084D290008692900081B010008C0
:1000E0001B0100081B0100081B010008DFF80CD0F1
:1000F00000F0CCFA00480047F5360008C808002098
:100100000648804706480047FEE7FEE7FEE7FEE7B1
:10011000FEE7FEE7FEE7FEE7FEE7FEE7ED28000864
:10012000ED00000840EA01039B0703D009E008C97D
:10013000121F08C0042AFAD203E011F8013B00F8AC
:10014000013B521EF9D27047D2B201E000F8012BF8
:10015000491EFBD270470022F6E710B513460A4647
:1001600004461946FFF7F0FF204610BD421E12F864
:10017000013F002BFBD111F8013B02F8013B002BA2
:10018000F9D1704730B505462A460B4612F8010BE7
:1001900013F8014B08B1A042F8D01CB1002802D0DE
:1001A0006D1CF1E7284630BDCAB2401E10F8011F91
:1001B0008A4202D00029F9D100207047421C10F871
:1001C000011B0029FBD1801A704710B5044600E0DE
:1001D000401C0378002BFBD100E0401C521E04D3CE
:1001E00011F8013B0370002BF7D10021017020466C
:1001F00010BD034611F8012B00F8012B002AF9D19C
:100200001846704770B5064602F0CEFD04680546F4
:100210000A220021304600F049F82C6070BD30B54C
:100220000B46014600202022012409E021FA02F5B4
:100230009D4205D303FA02F5491B04FA02F528444E
:10024000151EA2F10102F1DC30BD2DE9F05F05467B
:10025000002092469B4688460646814640241BE085
:10026000284641464746224600F031FA53465A4650
:10027000C01A914110D311461846224600F018FAD0
:100280002D1A67EB01084F4622460120002100F09D
:100290000FFA17EB00094E41201EA4F10104DFDC28
:1002A000484631462A464346BDE8F09F2DE9F047CF
:1002B00091460F4680460446002614F8015B2DB196
:1002C00000F028FA0068405DC007F6D12B2D02D05F
:1002D0002D2D18D0641E4A463946204600F01EFADD
:1002E00027B13968A14201D1C7F8008071054FF0EC
:1002F00002040BD54042002803DD02F055FD0460E6
:10030000A007BDE8F08746F48066E4E70028F8DA45
:1003100002F04AFD04606FF00040F2E72DE9FE4F65
:10032000804681EA0300C00F0C46009021F0004196
:1003300023F00045B8EB0200A94105D24046214612
:1003400090461C460B46024623F00040104347D01F
:10035000270DC7F30A00C3F30A510290401A019017
:1003600040286BDAC3F3130040F4801B00989246D8
:1003700020B10023D2EB030A63EB0B0B0198594623
:10038000C0F14002504600F093F906460D46504633
:100390005946019A00F0ABF910EB080061410024C6
:1003A00087EA115284EAE7731A4340D0009A62B395
:1003B000019A012A4FEA075215DC001B61EB02018A
:1003C0004FF0004202EA0752CDE90042001C41F51D
:1003D000801132462B4600F0FFF903B0BDE8F08FE4
:1003E00040462146F9E7001B61EB0201001C41F584
:1003F000801300185B412018A2F5001747EB03019A
:1004000040EAD570B6196D4111E06D084FEA360625
:1004100045EAC0754FEA0752001B61EB0201001C60
:1004200041F5801149084FEA300000195141324628
:100430002B4603B0BDE8F04F00F0BFB90098012291
:1004400040000023D0EB020263EBE07300982146EA
:100450004FEAE074B8EB000061EB0401E9E783F0D8
:1004600000435BE781F0004158E72DE9FE4F81EA48
:10047000030404F0004421F0004100944FF0000B0D
:1004800023F0004350EA01045ED052EA03045BD03B
:10049000C3F30A54C1F30A552C44A4F2F334019473
:1004A000A0FB0254C1F3130141F48011C3F3130301
:1004B00043F4801301FB024400FB034E840A970AB5
:1004C00044EA815447EA8357A4FB076802958D0AE2
:1004D00005FB07854FEA932C04FB0C542705029D6E
:1004E0004FEA065847EA1637B5EB08056EEB070CDE
:1004F000870E920E47EA811742EA8312A7FB020198
:10050000B6EB0B0164EB00042B0D43EA0C335E18D1
:1005100044EB1C50DA465146E7FB0201C5F31304D5
:100520004FEA0B3343EA14534FEA0432019C43EA87
:100530000603A4F10C040294009CCDE900B400F081
:100540004BF903B0BDE8F08F00200146F9E72DE933
:10055000F04D81EA030404F0004B21F000451446FD
:100560004FF0000A23F0004150EA050220D054EA7F
:1005700001021DD0C5F30A570246C5F31303C1F3A8
:100580001300C1F30A5640F4801543F48013A7EB1F
:100590000608101BD64608F2FD3873EB050002D39F
:1005A00008F1010801E092185B41B8F1000F03DA8D
:1005B00000200146BDE8F08D00204FF48011064672
:1005C00084460EE0171B73EB050705D3121B63EB84
:1005D000050306434CEA010C49084FEA3000921823
:1005E0005B4150EA0107EDD152EA030012D082EAE2
:1005F000040083EA0501084305D0101BAB4106D275
:100600000122002306E000224FF0004302E06FF0D9
:10061000010253101AEB06004CEB085110EB0A00D4
:1006200041EB0B01BDE8F04D00F0C7B8C1F30A5231
:10063000C1F3130140F2FF3341F480119A4202DA10
:1006400000200146704740F233439A42A2F23342FF
:1006500002DC524200F03BB800F02AB830B5041E6C
:1006600071F1000404DB4FF00044404264EB0101EF
:10067000141E73F1000405DB1C464FF00043524288
:1006800063EB0403994208BF904230BD064C074D0E
:1006900006E0E06840F0010394E807009847103452
:1006A000AC42F6D3FFF726FD94440008B44400089A
:1006B000202A04DB203A00FA02F100207047914022
:1006C000C2F1200320FA03F3194390407047202A17
:1006D00004DB203A21FA02F00021704721FA02F3EC
:1006E000D040C2F120029140084319467047202AA9
:1006F00006DBCB17203A41FA02F043EAE07306E04A
:1007000041FA02F3D040C2F1200291400843194659
:100710007047000000487047904400082DE9F05FE2
:1007200082460078002715468B460AF10104B94637
:10073000302801D09DB113E014F8010B012778286F
:1007400003D0582801D045B10AE00DB1102D07D1D2
:100750000027102514F8010B02E0082500E00A2507
:100760000026B0460EE005FB080005FB06F1012758
:1007700001EB10461FFA80F8B6F5803F00D3B9466A
:1007800014F8010B294600F075F80028EBDABBF1EC
:10079000000F05D00FB1641E00E05446CBF80040B6
:1007A000B9F1000F06D002F0FFFA02210160C81E65
:1007B000BDE8F09F48EA0640FAE710B5141E73F151
:1007C000000408DA401C41F1000192185B411A4311
:1007D00001D120F0010010BD2DE9F04D92469B465D
:1007E00011B1B1FA81F202E0B0FA80F22032904603
:1007F000FFF75EFF04460F4640EA0A0041EA0B019C
:1008000053465A46084313D0114653EA010019D003
:10081000C8F140025046FFF75AFF05460E465046C3
:1008200059464246FFF744FF084305D0012004E043
:1008300020463946BDE8F08D0020054346EAE076C3
:100840002C4337430A986305E40AA0EB0800002212
:10085000FD0A44EA47540A3002D500200146E9E780
:10086000010510196941DDE9084500196941BDE834
:10087000F04DA2E73A2800D2303820F02002412A79
:1008800001D3A2F13700884201D34FF0FF30704707
:1008900070B58C1810F8015B15F0070301D110F842
:1008A000013B2A1106D110F8012B03E010F8016B6F
:1008B00001F8016B5B1EF9D12B0705D40023521EF2
:1008C0000DD401F8013BFAE710F8013BCB1A921C5A
:1008D00003E013F8015B01F8015B521EF9D5A14258
:1008E000D8D3002070BD21B1826842F0010282603D
:1008F00003E0826822F001028260704721B18268C1
:1009000042F48072826003E0826822F48072826026
:100910007047014600208A6802F004020AB10120F3
:1009200000E000207047014600208A6802F00802BB
:100930000AB1012000E000207047000030B50246F7
:100940000020002350680F4C20400D790C6844EAC9
:1009500005242043506090680B4C2040D1E902549C
:100960002C434D7944EA450420439060D06A20F43A
:1009700070000C7C641EE4B2234340EA0350D06252
:1009800030BD0000FFFEF0FFFDF7F1FFF0B50446BB
:100990000D4600200021092D11DDE068A5F10A06B1
:1009A00006EB4607072606FA07F18843A5F10A0673
:1009B00006EB460603FA06F10843E0600CE0206906
:1009C00005EB4507072606FA07F1884305EB4506C0
:1009D00003FA06F108432061072A0FDA606B561EFE
:1009E00006EB86071F2606FA07F18843561E06EB1C
:1009F000860605FA06F10843606322E00D2A0FDA45
:100A0000206BD61F06EB86071F2606FA07F18843E0
:100A1000D61F06EB860605FA06F10843206310E0B0
:100A2000E06AA2F10D0606EB86071F2606FA07F11B
:100A30008843A2F10D0606EB860605FA06F1084387
:100A4000E062F0BD816841F008018160704721B12A
:100A5000826842F4A002826003E0826822F4A0026D
:100A600082607047816841F0040181607047000036
:100A700000B591B00121480201F046FE0121042099
:100A800001F042FE0121084601F01EFE4FF4004035
:100A900001F00EFE00208DF843006320ADF8400009
:100AA00003208DF8420010A9364800F055FB0523BD
:100AB000012219463448FFF769FF05230222062167
:100AC0003148FFF763FF0523032200212E48FFF77B
:100AD0005DFF0523042201212B48FFF757FF00206B
:100AE0000B900E904FF460200D9001208DF8310096
:100AF0008DF8300004208DF83C000BA92248FFF748
:100B00001DFF21484C300090801506900020049075
:100B10001E4801904FF480600790802005900020CF
:100B20000290042003902020089000200A904FF4A7
:100B3000805009906946164800F01CF901211448BC
:100B400000F00CF901211048FFF7D8FE01210E48F2
:100B5000FFF7C9FE0C48FFF775FF00BF0A48FFF713
:100B6000E2FE0128FAD00848FFF77CFF00BF0648E4
:100B7000FFF7CFFE0128FAD001210348FFF767FFF6
:100B800011B000BD00080140002401401400002005
:100B90000800024000BFFEE708B50121082001F06F
:100BA000B3FD10208DF803000002ADF80000032013
:100BB0008DF802006946044800F0CEFA4FF48051E7
:100BC000014800F056FB08BD000C014010B54FF481
:100BD0008051024800F04DFB10BD0000000C0140A8
:100BE00010B54FF48051024800F041FB10BD0000E9
:100BF000000C014010B500241548006820F00F00DB
:100C0000134908600846006840F00800086004E0E6
:100C1000601CC4B2012000F0D8F80E48006808B18A
:100C2000642CF5DB642C01DB012010BD002404E002
:100C3000601CC4B2012000F0C8F80648006808B97A
:100C4000642CF5DB642C01DB0120EEE70020ECE7EF
:100C5000000C01400081214210B5002404E0601C1A
:100C6000C4B2012000F0B1F80D48006808B1642C4E
:100C7000F5DB002404E0601CC4B2012000F0A5F8FC
:100C80000748006808B9642CF5DB282000F09DF8BF
:100C90000348006808B1012010BD0020FCE70000F7
:100CA0000081214270B50024002506E06006040E94
:100CB000FFF7D2FF0443681CC5B2082DF6DB2046BF
:100CC00070BD7CB505460E4600F028F8FFF792FF90
:100CD000F8B9002405E0FFF7E5FF0DF80400601CFB
:100CE000C4B2052CF7DB9DF800009DF80110084404
:100CF0009DF8021008449DF8031008449DF8041064
:100D0000884208D19DF8000030709DF802002870DC
:100D100001E001207CBD0020FCE7000010B50C487C
:100D2000006820F00F000A4908600846006840F09B
:100D300003000860002007490860142000F039F81B
:100D400001200549C1F880011E2000F03EF810BDC9
:100D5000000C0140808121420080214221B10268C3
:100D600042F00102026004E002684FF6FE731A408E
:100D70000260704710B50022026847F6F0739A438C
:100D80000C6A8B6823430C6923434C6923438C69A9
:100D90002343CC6923434C6A23438C6A23431A437D
:100DA0000260CB6843600B6883604B68C36010BD12
:100DB000704700B5034603E04FF47A7000F005F881
:100DC000181EA3F10103F7D100BD00EBC001C9005B
:100DD0004FF0E0225161002191610521116100BFB6
:100DE0004FF0E021096901F480310029F8D0042195
:100DF0004FF0E0221161704710B580210348FFF7E2
:100E0000AAF900200249088010BD00004802002015
:100E10003802002070B50546002400BF00F082F9BA
:100E200080B90DA10E48FFF7ADF9044654B13A213F
:100E30002046FFF7B9F9044614B1641C204670BD82
:100E40000020FCE70520FFF7B4FF681E85B2002DE7
:100E5000E4DC0020F3E700004950442C00000000CF
:100E60004802002008B50121042001F04DFC1020AB
:100E70008DF803008002ADF8000003208DF8020019
:100E800069463D4800F068F900224FF480413A4835
:100E900000F0F1F9FA20FFF78CFF012291033648A8
:100EA00000F0E9F94FF4FA70FFF783FFFFF7A4FFB2
:100EB00032A1344801F010FF03E04FF4FA70FFF75D
:100EC00078FF31A131A000F0DFF80028F5D131A181
:100ED0002C4801F001FF2EA131A000F0D5F84FF40D
:100EE000FA70FFF766FF2AA130A000F0CDF84FF4AA
:100EF000FA70FFF75EFF31A1224801F0EDFE03E03A
:100F00004FF4FA70FFF755FF1FA12FA000F0BCF8B7
:100F10000028F5D130A11B4801F0DEFE03E04FF4BC
:100F2000FA70FFF746FF18A12FA000F0ADF80028D7
:100F3000F5D131A1134801F0CFFE03E04FF4FA7070
:100F4000FFF737FF2FA131A000F09EF80028F5D160
:100F500036A10C4801F0C0FE03E04FF4FA70FFF731
:100F600028FF36A137A000F08FF80028F5D140A166
:100F7000044801F0B1FE08BD00100140302E2041B0
:100F8000540D0A00003801404F4B000041540D0A37
:100F900000000000312E205253540D0A00000000C2
:100FA00041542B5253540D0A0000000041542B436E
:100FB0004950434C4F53450D0A000000322E204348
:100FC000574D4F44450D0A0041542B43574D4F4454
:100FD000453D310D0A000000332E2041542B43576C
:100FE000444843500D0A000041542B4357444843A2
:100FF000503D312C310D0A00342E2043574A4150C8
:101000000D0A0000474F54204950000041542B4323
:10101000574A41503D226C6569222C226A6B31325D
:1010200033343536373839220D0A0000352E204347
:10103000495053544152540D0A000000434F4E4E44
:101040004543540041542B43495053544152543D5D
:1010500022544350222C223138332E3233302E3456
:10106000302E3339222C363030320D0A0000000089
:10107000362E204553503832363620496E6974205A
:101080004F4B0D0A000000002DE9F04104460D46CB
:10109000C8262046FFF792F887B23A4621460D4807
:1010A00001F03EFE0FE000F03DF848B929460A483D
:1010B000FFF768F820B1FFF79FFE0020BDE8F08140
:1010C0000A20FFF776FE301EA6F10101CEB2EAD16A
:1010D0000120F3E7004400404802002030B589B009
:1010E00004460D46FFF788FE2A4608A101A801F034
:1010F00031FE0AA101A8FFF7C7FF20B92A46214601
:10110000074801F00DFE09B030BD000041542B43EB
:10111000495053454E443D25640D0A003E000000F1
:10112000004400400A48008808B901207047084878
:10113000008808490988884203D1002004490880B2
:10114000F4E703480088034908800120EEE7000027
:10115000380200203A0200202DE9F0410246002525
:101160000026002000230024002791F803C00CF083
:101170000F0591F803C00CF0100CBCF1000F03D068
:1011800091F802C04CEA050591F800C0BCF1000FCF
:1011900031D0146800202BE04FF0010C0CFA00F362
:1011A000B1F800C00CEA03069E4220D183004FF044
:1011B0000F0C0CFA03F7BC4305FA03FC4CEA0404D9
:1011C00091F803C0BCF1280F06D14FF0010C0CFAC6
:1011D00000FCC2F814C00AE091F803C0BCF1480F4B
:1011E00005D14FF0010C0CFA00FCC2F810C0401CF5
:1011F0000828D1D31460B1F800C0BCF1FF0F34DD72
:10120000546800202EE000F1080C4FF0010808FAA5
:101210000CF3B1F800C00CEA03069E4221D1830012
:101220004FF00F0C0CFA03F7BC4305FA03FC4CEA31
:10123000040491F803C0BCF1280F05D100F1080C9B
:1012400008FA0CF8C2F8148091F803C0BCF1480FFA
:1012500007D100F1080C4FF0010808FA0CF8C2F8A9
:101260001080401C0828CED35460BDE8F081416155
:101270007047016170470AB1016100E04161704748
:1012800000BFFEE710B54FF4A06000F0CBFC00F00B
:1012900011F800F067FDFFF77FFCFFF7E9FB00F0B6
:1012A0004FF84FF4E13001F069FC4FF4E13001F008
:1012B000BDFC10BD08B50121082001F025FAC020B1
:1012C000ADF8000010208DF8030003208DF8020017
:1012D00069460248FFF740FF08BD0000000C0140CE
:1012E00010B540210148FFF7C2FF10BD000C0140BE
:1012F00010B540210148FFF7BCFF10BD000C0140B4
:1013000010B580210148FFF7B2FF10BD000C01406D
:1013100010B580210148FFF7ACFF10BD000C014063
:1013200010B510210148FFF7A4FF10BD00080140CF
:1013300010B510210148FFF79AFF10BD00080140C9
:1013400008B50121042001F0DFF910208DF8030019
:10135000ADF8000003208DF8020069460348FFF74E
:10136000FBFE10210148FFF784FF08BD0008014083
:1013700010B50446207B012802D1206802F092F9C2
:10138000002020606060A060207310BD0246002332
:1013900001230DE002F07F000870D2092AB108781D
:1013A00040F080000870491C01E0184670475B1C43
:1013B000042BEFDD4FF0FF30F8E770B504460E4622
:1013C0000025206898B901202073304602F01EFAEB
:1013D00020602068E0B100206060A66003E000208B
:1013E000216848556D1CA068A842F8D810E002207A
:1013F000207303E00020216848556D1CA068A842B6
:10140000F8D800206060A068B04201D200202060BF
:1014100070BD00002DE9FF5F07460D469046384637
:10142000FEF7CCFE86B22846FEF7C8FE1FFA80FA09
:101430004FF00009F01D02F0E9F904461CB9012043
:1014400004B0BDE8F09FF11D2046FEF784FE12A017
:10145000016821608088A080324639462046FEF728
:10146000B4FE2846FEF7AAFE834601200021009123
:101470005B462A46CDE90208019121460A2000F088
:101480005FF910B94FF0000901E04FF00109204663
:1014900002F008F94846D3E724637273702F000006
:1014A0002DE9FF4F83B082468B469146159C00255F
:1014B000002002900F2701904846FEF77FFE0FFAAA
:1014C00080F8B9F1000F03D1012007B0BDE8F08F1B
:1014D00008F10200384487B2109808B145F00205BF
:1014E000129878B145F004051298FEF767FEC0B275
:1014F00002901398FEF762FE01460298001D084410
:10150000384487B2119820B1012804D0022808D1AC
:1015100004E000BF07E045F00C0504E045F01405C9
:1015200001E00220D1E700BF149808B145F024057E
:10153000BAF1000F02D0BBF1000F01D10320C4E7C4
:1015400045F0C0055046FEF739FE06465846FEF700
:1015500035FE3044001D384487B239462046FFF737
:101560002CFF206808B90420AFE739462068FEF751
:10157000F2FD10216268501C606020688154D4E93B
:101580000023D118781FFFF701FF00B201900198E6
:10159000002804DA2046FFF7EBFE052095E7616896
:1015A00001980844606000216268501C60602068F7
:1015B000815404216268501C6060206881544D2170
:1015C0006268501C60602068815451216268501C20
:1015D00060602068815454216268501C60602068FB
:1015E00081546268501C60602068815404216268E4
:1015F000501C6060206881546168481C60602068ED
:1016000045540698010A6268501C60602068815445
:101610000698C1B26268501C606020688154C8F3AB
:1016200007216268501C6060206881546268501C09
:101630006060206800F80280D4E9001288184246F1
:101640004946FEF7C2FD60684044606005F0040052
:10165000B8B30026139808B938A013901298FEF773
:10166000ADFD86B2310A6268501C6060206881540A
:101670006268501C606020688654D4E900128818A3
:1016800032461299FEF7A1FD6068304460601398FD
:10169000FEF794FD86B2310A6268501C60602068D3
:1016A00081546268501C606020688654D4E900123E
:1016B000881832461399FEF788FD606830446060F0
:1016C00000BF05F08000C8B15046FEF777FD86B236
:1016D000310A6268501C6060206881546268501C46
:1016E000606020688654D4E900128818324651465A
:1016F000FEF76BFD60683044606000BF05F040009D
:10170000C8B15846FEF75AFD86B2310A6268501CCD
:101710006060206881546268501C60602068865454
:10172000D4E90012881832465946FEF74EFD60682B
:101730003044606000BF0020C7E6000000000000E9
:101740002DE9FF4F83B0834617469946139C002529
:1017500000260020029001908046BBF1000F03D1CB
:10176000012007B0BDE8F08F00260AE00498805DF4
:10177000232803D00498805D2B2801D10220F0E7B4
:10178000761C0498805D0028F0D148F0300811984C
:1017900008B148F0010806EB0900851C109820B13B
:1017A000012804D002280AD105E000BF09E048F072
:1017B0000208AD1C05E048F00408AD1C01E0032060
:1017C000CFE700BF8FB33878022821D14FF0000A4D
:1017D00000BF50460AF1010A385C7D28F9D1AAF110
:1017E000030A0AF1070002900298A9EB000AE81C1C
:1017F000A0EB0A012046FFF7E0FD206808B90420AD
:10180000AFE7EA1CA2EB0A012068FEF7A4FC19E08E
:10181000691D2046FFF7D1FD206808B90420A0E724
:10182000691D2068FEF797FC0CE0FFE7691D204664
:10183000FFF7C3FD206808B9042092E7691D2068FE
:10184000FEF789FC6168481C6060206800F8018030
:10185000D4E9000281182846FFF798FD019001980D
:10186000002804DA2046FFF783FD052079E7616848
:10187000019808446060C6F307216268501C6060EC
:10188000206881546268501C606020688654D4E9E6
:101890000012881832460499FEF797FC60683044BD
:1018A0006060109860B14FEA1B216268501C606054
:1018B000206881546268501C6060206800F802B0A3
:1018C000C7B1387802280BD1D4E9001288183946FC
:1018D000029AFEF727FC616802980844606009E0FC
:1018E000D4E9001288184A463946FEF71BFC6068A6
:1018F00048446060002034E72DE9FF4107460D466B
:1019000090461E460A9C01200021CDE90001EB1CF7
:101910000A460FA1CDE902040A20FFF711FF88B99A
:101920006168481C606020684654C5F307216268FE
:10193000501C6060206881546268501C60602068A0
:10194000855403E0012004B0BDE8F0810020FAE7EF
:1019500024647000F0B504460D462646012300209D
:101960001060002114E0775C07F07F07106807FB28
:1019700003001060705C00F0800008B9481CF0BDE6
:10198000DB01B3F5001F02D36FF00100F7E7491C3C
:10199000A942E8DB4FF0FF30F1E72DE9F84380463C
:1019A0000C4615461E462F2108F10600FEF7FCFBEB
:1019B00007460020009017B90120BDE8F8837F1C7E
:1019C0006A46042108F10100FFF7C4FF252001F059
:1019D0001DFF2060206808B90220EEE7252120685D
:1019E000FEF7B9FB242239462068FEF79BFB24371B
:1019F00000982C3830803188481C01F007FF28609F
:101A0000286820B9206801F04DFE0320D5E7328810
:101A1000511C2868FEF79FFB328839462868FEF77C
:101A200081FB0020C9E701464878022801D0012047
:101A30007047887810B18878012801D1C878F7E715
:101A4000FF20F5E701464878022801D001207047C1
:101A5000887820B9C8780A2801D10020F7E701204A
:101A6000F5E70000F8B50446FF2720780511012DA1
:101A700001DB0E2D01DD3846F8BD032D24D10020F9
:101A800000906A460421601CFFF764FF2044461C56
:101A90000098022803D3207800F0010008B1FF204D
:101AA000EAE77078317840EA0120801C009988428A
:101AB00001D9FF20E0E706A1B01CFEF763FB08B1E7
:101AC0000F2700E0032700E02F463846D4E7000048
:101AD000246372657100000000BFFEE710B5304856
:101AE0004088B0F5C87F0EDAC820FFF762F92D48AC
:101AF000007800EB40002C4901EB80004078294938
:101B0000087000F099F826480088B0F5C87F0EDA12
:101B1000C820FFF74EF92348007800EB4000224927
:101B200001EB800080781F49087000F085F81C48A0
:101B3000008840F6AC5188420EDDC820FFF739F925
:101B40001848007800EB4000174901EB8000C0788E
:101B50001449087000F070F81148408840F6AC5104
:101B600088420EDDC820FFF724F90E48007800EB0C
:101B700040000D4901EB800000790A49087000F02F
:101B80005BF80848007800EB4000074901EB800053
:101B900080680649086008460068804710BD00005C
:101BA00014000020A0010020AC0100209C010020B6
:101BB0007047000070B5002100230F22C47804B3E1
:101BC000154C246804F4E064C4F5E064210AC1F112
:101BD0000403CA40447804FA03F184781440214392
:101BE00009010E4C0678A155047804F01F05012464
:101BF000AC4005786D11AD0005F1E025C5F8004158
:101C000009E0047804F01F050124AC40044D067877
:101C1000761145F8264070BD0CED00E000E400E0D0
:101C200080E100E002490143024A11607047000070
:101C30000000FA050CED00E070B500240EE0002174
:101C4000204600F0F0F8002504E0002000F0BCF988
:101C5000681CC5B2802DF8DB601CC4B2082CEEDB1A
:101C600070BD000008B50121082000F04DFD1420D2
:101C70008DF8030003208DF802004FF48070ADF85A
:101C8000000069460A48FFF767FA4FF40070ADF8A4
:101C9000000069460648FFF75FFA01221102044876
:101CA000FFF7E9FA012251020148FFF7E4FA08BD03
:101CB000000C014070B50546002415E0802020414D
:101CC00000EA05024FF400710E48FFF7D4FA012232
:101CD00011020C48FFF7CFFA00224FF48071094837
:101CE000FFF7C9FA601CC4B2082CE7DB012211021D
:101CF0000448FFF7C0FA00224FF480710148FFF753
:101D0000BAFA70BD000C014010B5012251020A4818
:101D1000FFF7B1FA012211020748FFF7ACFA0022DF
:101D20004FF400710448FFF7A6FA00224FF48071C7
:101D30000148FFF7A0FA10BD000C014010B50022C9
:101D40004FF400710648FFF796FA01221102044889
:101D5000FFF791FA012251020148FFF78CFA10BDFA
:101D6000000C014070B5002406E0002500E06D1C69
:101D7000B5F57A7FFBD3641CB4F57A7FF5D3FFF712
:101D800071FFAE2000F010F9D52000F00DF9802091
:101D900000F00AF9A82000F007F93F2000F004F94C
:101DA000D32000F001F9002000F0FEF8402000F000
:101DB000FBF8A12000F0F8F8C82000F0F5F8DA20D0
:101DC00000F0F2F8122000F0EFF8812000F0ECF8BB
:101DD000CF2000F0E9F8D92000F0E6F8F12000F07B
:101DE000E3F8DB2000F0E0F8302000F0DDF8A4207C
:101DF00000F0DAF8A62000F0D7F88D2000F0D4F833
:101E0000142000F0D1F8AF2000F0CEF8FFF714FF57
:101E100070BD10B50246012000E050430B1EA1F139
:101E20000101FAD110BD70B505460C4645F0B00071
:101E300000F0BAF8102141EA141000F0B5F804F0EF
:101E40000F0000F0B1F870BD2DE9F04105460E46D7
:101E500017464FF00008721ED206110E6A1E520677
:101E6000100EFFF7E0FF00240BE0164A02EB4711CB
:101E7000085D00F0A9F808F1010000F0FF08601CFF
:101E8000C4B2102CF1DB721ED206110E6A1E0123A1
:101E900003EB4202D0B2FFF7C6FF00240DE0790049
:101EA000491C084A02EB0111085D00F08DF808F1A9
:101EB000010000F0FF08601CC4B2102CEFDBBDE88D
:101EC000F08100001C0000202DE9F04105460E467F
:101ED0001746721ED206110E6A1E5206100EFFF72A
:101EE000A2FF002409E0A7F12001134A02EB01112F
:101EF000085D00F069F8601CC4B2082CF3DB721EA8
:101F0000D206110E6A1E012303EB4202D0B2FFF784
:101F10008AFF00240BE0A7F12001074A02EB01121F
:101F200004F10801505C00F04FF8601CC4B2082CAA
:101F3000F1DBBDE8F08100001C3E00082DE9F04710
:101F400080460E4617461D46002415E0281B411EFC
:101F50000A20FFF75EFFB7FBF0F00A21B0FBF1F2B9
:101F600001FB120000F130093019C1B24A46404667
:101F7000FFF7AAFF601CC4B2AC42E7DBBDE8F08704
:101F80002DE9F04107460E461546002407E02A5D7C
:101F90003019C1B23846FFF797FF601CC4B2285D04
:101FA0000028F4D1BDE8F08110B50446FFF7ACFE7F
:101FB0007820FFF77FFE0020FFF77CFE2046FFF72A
:101FC00079FEFFF7BBFE10BD10B50446FFF79CFE7F
:101FD0007820FFF76FFE4020FFF76CFE2046FFF7EA
:101FE00069FEFFF7ABFE10BD30B58BB00020079047
:101FF000089009900A90012530A033A333A235A19F
:102000000090404800F068FE07A80021029103916B
:10201000CDE9041000912B0228A201912AA12BA046
:10202000FFF73EFA002842D1089A91B20798FFF7CD
:1020300055F8FA20FEF7EEFE0446002C33D0204679
:10204000FFF710FD02282ED12046FFF7ECFC0628F2
:1020500023D2DFE800F003090E13181D2AA1294836
:1020600000F03AFE00251DE02CA1264800F034FEC9
:1020700018E031A1234800F02FFE13E037A12148DA
:1020800000F02AFE0EE03DA11E4800F025FE09E00A
:1020900043A11C4800F020FE04E04CA1194800F0C8
:1020A0001BFE00BF00BF07A8FFF762F903E04EA1C7
:1020B000144800F011FE28460BB030BD31303732E5
:1020C0003233303733380000313233003530313479
:1020D000363200004F6E654E65745F4465764C691C
:1020E0006E6B0D0A50524F49443A2025732C09411A
:1020F0005549463A2025732C0944455649443A250A
:10210000730D0A0000380140546970733A09C1AC7C
:10211000BDD3B3C9B9A60D0A000000005741524E05
:102120003A09C1ACBDD3CAA7B0DCA3BAD0ADD2E9DD
:10213000B4EDCEF30D0A00005741524E3A09C1AC3E
:10214000BDD3CAA7B0DCA3BAB7C7B7A8B5C4636C80
:1021500069656E7469640D0A000000005741524EB3
:102160003A09C1ACBDD3CAA7B0DCA3BAB7FECEF161
:10217000C6F7CAA7B0DC0D0A000000005741524E56
:102180003A09C1ACBDD3CAA7B0DCA3BAD3C3BBA7BD
:10219000C3FBBBF2C3DCC2EBB4EDCEF30D0A00000F
:1021A0005741524E3A09C1ACBDD3CAA7B0DCA3BA5D
:1021B000B7C7B7A8C1B4BDD328B1C8C8E7746F6B9F
:1021C000656EB7C7B7A8290D0A0000004552523AFC
:1021D00009C1ACBDD3CAA7B0DCA3BACEB4D6AAB4E9
:1021E000EDCEF30D0A0000005741524E3A094D5111
:1021F00054545F5061636B6574436F6E6E656374B6
:10220000204661696C65640D0A00000010B588B055
:1022100004463A493A48FEF754FD20216846FDF746
:102220009AFF38A12046FDF7E4FF20216846FDF71C
:1022300092FF3348027834A1684600F08BFD69466E
:102240002046FDF793FF20216846FDF784FF2B48C9
:10225000027831A1684600F07DFD69462046FDF711
:1022600085FF20216846FDF776FF2F482FA10268E1
:10227000684600F06FFD69462046FDF777FF202194
:102280006846FDF768FF2B4882882BA1684600F05E
:1022900061FD69462046FDF769FF20216846FDF78C
:1022A0005AFF2448C28827A1684600F053FD6946BA
:1022B0002046FDF75BFF20216846FDF74CFF1D48D7
:1022C000028823A1684600F045FD69462046FDF7D7
:1022D0004DFF20216846FDF73EFF164842881EA1AB
:1022E000684600F037FD69462046FDF73FFF20466F
:1022F000FDF764FFC0B208B010BD0000A3010020CC
:10230000A20100202C3B000054656D70726574754D
:1023100072652C25643B000048756D6964697479A9
:102320002C25643B00000000300200204C45442C6A
:1023300025643B00140000204D512D3133352C25F0
:10234000643B0000464952452C25643B00000000D8
:10235000592C25643B000000582C25643B000000EC
:102360002DE9F0418CB080460020089009900A9039
:102370000B9007900690059000250026002400276A
:102380004046FFF76FFB0546042D7DD00F2D7CD115
:1023900005AB07AA06A94046FFF7FFFA0646002E3E
:1023A0007DD1BDF8140000905AA16348DDE90623F1
:1023B00000F092FCBDF81400009056A15E48DDE9E3
:1023C000062300F089FC5DA10798FDF7DBFE48B10C
:1023D00001205D4908605DA1574800F07DFCFEF7D3
:1023E000A7FF0DE05CA10798FDF7CCFE40B15DA111
:1023F000514800F071FCFEF793FF0020524908603D
:102400005CA10798FDF7BEFE48B101205C49086059
:102410005CA1494800F060FCFEF77AFF0DE05DA189
:102420000798FDF7AFFE40B15DA1434800F054FCB2
:10243000FEF766FF0020524908605DA10798FDF78E
:10244000A1FE48B101205D4908605DA13A4800F055
:1024500043FCFEF74DFF0DE05DA10798FDF792FEEE
:1024600040B15EA1344800F037FCFEF739FF002090
:10247000524908605D4803785D4802785DA12E48A6
:1024800000F02AFC08AA02E00AE00FE007E0DDE91C
:102490000601FEF7BFFF10B908A8FEF769FF08E0C4
:1024A0004046FFF7CFFA00B903E000BF4FF0FF3618
:1024B00000BF00BFFEF7A0FC701C10B90CB0BDE857
:1024C000F0817D210798FDF76FFE0446B4B1701CC2
:1024D000A0B1641C05E014F8012B38467F1C02A94A
:1024E0000A542078302802DB20783928F3DD0020D8
:1024F00002A9C85502A8FDF785FE07460F2D01D099
:10250000032D05D1069801F0CDF8079801F0CAF81F
:1025100000BFD3E7636D6469643A2025732C207291
:1025200065713A2025732C207265715F6C656E3A77
:102530002025640D0A00000000380140737769749B
:102540006368313A31000000240200204C454431D8
:102550005F4F4E21200D0A00737769746368313A2A
:10256000300000004C4544315F4F464621200D0AA3
:1025700000000000737769746368323A310000002C
:10258000280200204A64705F70776D5F6F6E2120B3
:102590000D0A0000737769746368323A30000000F6
:1025A0004A64705F70776D5F6F666621200D0A0068
:1025B000737769746368333A310000002C0200209D
:1025C0004A64705F6A725F6F6E21200D0A0000001E
:1025D000737769746368333A300000004A64705F4F
:1025E0006A725F6F666621200D0A0000A301002059
:1025F000A2010020CEC2B6C8A3BA25642020CAAA70
:10260000B6C8A3BA25640D0A0000000030B5A5B015
:1026100000202190229023902490002400258021E6
:1026200001A8FDF798FD01A8FFF7F0FD0446002C76
:1026300021D021A805230022214600900FA0FFF7FA
:102640005BF9A0B908E001A8415D229A501C2290D4
:1026500021988154681C05B2A542F4DB229A91B2FC
:102660002198FEF73BFD21A8FEF782FE03E006A1BC
:102670000D4800F031FB25B030BD0000313037325D
:1026800032333037333800005741524E3A0945440F
:10269000505F4E6577427566666572204661696C6B
:1026A00065640D0A0000000000380140704700001A
:1026B00001460020034A506820F44040084350601F
:1026C000704700000010024029B1064A52690243D7
:1026D000044B5A6104E0034A52698243014B5A6138
:1026E000704700000010024029B1064AD269024337
:1026F000044BDA6104E0034AD2698243014BDA6198
:10270000704700000010024029B1064A9269024356
:10271000044B9A6104E0034A92698243014B9A6137
:10272000704700000010024030B500210022002454
:1027300000232D4D6D6805F00C0121B1042905D051
:10274000082923D105E0294D056022E0274D0560C9
:102750001FE0254D6D6805F47012234D6D6805F47A
:102760008034022505EB92421CB9214D554305608A
:102770000BE01D4D6D6805F400351DB11C4D554332
:10278000056002E0194D5543056002E0174D0560F4
:1027900000BF00BF144D6D6805F0F0010909154D2B
:1027A0006B5C0568DD4045600F4D6D6805F4E061C8
:1027B000090A104D6B5C4568DD4085600A4D6D6807
:1027C00005F46051C90A0B4D6B5C4568DD40C5607E
:1027D000054D6D6805F44041890B074D6B5CC5687C
:1027E000B5FBF3F5056130BD0010024000127A0020
:1027F00000093D000000002010000020704710B5C7
:1028000000F002F810BD00000CB50020019000900F
:102810003348006840F480303149086000BF3048D8
:10282000006800F4003000900198401C019000986E
:1028300018B90198B0F5A06FF1D12948006800F4EB
:10284000003010B10120009001E0002000900098BD
:10285000012843D12348006840F010002149086056
:102860000846006820F0030008600846006840F051
:10287000020008601A4840681949486008464068E4
:1028800048600846406840F48060486008464068F8
:1028900020F47C1048600846406840F4E810486026
:1028A0000846006840F08070086000BF0C4800686F
:1028B00000F000700028F9D00948406820F00300BB
:1028C000074948600846406840F00200486000BF81
:1028D0000348406800F00C000828F9D10CBD000046
:1028E00000100240002002407047000010B513485D
:1028F000006840F00100114908600846406810492E
:1029000008400E494860084600680E4908400B49D7
:1029100008600846006820F4802008600846406887
:1029200020F4FE0048604FF41F008860FFF767FF47
:102930004FF000600449086010BD00000010024024
:102940000000FFF8FFFFF6FE08ED00E010B540F2D2
:102950002551044800F050F818B12021014800F03A
:1029600029F810BD0038014010B540F225510E483D
:1029700000F042F8B0B10D480088802802D3002052
:102980000A4908800848001D0088C1B2074802882B
:102990000088401C054B18800548815420210248BE
:1029A00000F008F810BD000000440040380200208C
:1029B0004802002001F40072B2F5007F00D100BF90
:1029C000CA430280704721B1828942F40052828159
:1029D00004E082894DF6FF731A40828170470246F7
:1029E0000020B1F5007F00D100BF13880B400BB170
:1029F000012000E00020704770B50246002400234B
:102A00000025002040F66A16B14200D100BFC1F394
:102A1000421501F01F03012606FA03F3012D02D12E
:102A20009689334006E0022D02D1168A334001E038
:102A3000968A33400C12012606FA04F416883440B4
:102A400013B10CB1012000E0002070BDF0B50346C9
:102A5000002400260025002040F66A17B94200D164
:102A600000BF1846C1F3421401F01F06012707FA00
:102A700006F5012C01D10C3004E0022C01D11030FC
:102A800000E014301AB107682F43076002E00768BE
:102A9000AF430760F0BD00002DE9F04786B0054662
:102AA0000E460024A24600BFA1460027B08900B10F
:102AB00000BF2F462C8A4CF6FF700440F088044378
:102AC0002C82AC894EF6F3100440B088318908435B
:102AD000718908430443AC81AC8A4FF6FF4004403F
:102AE000B0890443AC8201A8FFF71EFE1F4887424D
:102AF00002D1DDF810A001E0DDF80CA0A88900F4F7
:102B0000004040B10AEBCA0000EB0A1031684900EE
:102B1000B0FBF1F807E00AEBCA0000EB0A103168DD
:102B20008900B0FBF1F86420B8FBF0F00401200943
:102B3000642101FB1089A88900F4004040B13220D3
:102B400000EBC900B0FBF1F000F00700044308E01F
:102B5000322000EB09106421B0FBF1F000F00F000F
:102B600004432C8106B0BDE8F08700000038014026
:102B7000C1F308028280704700BFFEE710B586B03F
:102B8000044601210420FFF7BFFD01218803FFF760
:102B9000BBFD18208DF817004FF40070ADF814003D
:102BA00003208DF8160005A91E48FEF7D5FA04206B
:102BB0008DF817000002ADF8140003208DF8160000
:102BC00005A91848FEF7C8FA01940020ADF81000D6
:102BD0000C20ADF80E000020ADF80C00ADF80A0096
:102BE000ADF8080001A91048FFF756FF01210E4873
:102BF000FFF7E9FE012240F225510B48FFF726FFBF
:102C000025208DF8000001208DF8030000208DF8AC
:102C1000010002208DF802006846FEF7CBFF06B0E7
:102C200010BD0000000801400038014010B586B01A
:102C3000044601210420FFF767FD01214804FFF746
:102C400053FD18208DF817000420ADF81400032060
:102C50008DF8160005A91E48FEF77EFA04208DF8AF
:102C600017000820ADF8140003208DF8160005A900
:102C70001748FEF771FA01940020ADF810000C20FF
:102C8000ADF80E000020ADF80C00ADF80A00ADF86C
:102C9000080001A90F48FFF7FFFE01210D48FFF7CB
:102CA00092FE012240F225510A48FFF7CFFE26206E
:102CB0008DF8000001208DF8030000208DF8010040
:102CC0008DF802006846FEF775FF06B010BD0000E3
:102CD00000080140004400400FB430B5CBB00546B9
:102CE00001AC50A800904FF4947101A8009B4F9A3A
:102CF00000F044F8002000900BE014F8011B284677
:102D0000FFF736FF00BF40212846FFF768FE002886
:102D1000F9D020780028F0D14BB030BC5DF814FB1E
:102D20002DE9F04107460C46154600260DE014F843
:102D3000011B3846FFF71CFF00BF40213846FFF754
:102D40004EFE0028F9D0701C86B2AE42EFDBBDE823
:102D5000F08100000FB4084B10B504A902AA039833
:102D600000F0F8F8044602A9002000F095FC204687
:102D700010BC5DF814FB0000993600087CB50446D1
:102D800000201D46164600290BD0491ECDE9004102
:102D9000044B6A462946304600F0DCF8009A0021D0
:102DA00011707CBD83360008004870474402002043
:102DB00002E008C8121F08C1002AFAD17047704704
:102DC000002001E001C1121F002AFBD17047000062
:102DD0002DE9FF5F82B00021DDE90430020DDDF84E
:102DE00040B0034318D044F61050A2F2FF324243E1
:102DF0001514119801281FD0A5EB0B00401C5FEAA9
:102E0000000A4FF000064E4FDFF83891B0465046AA
:102E100015D5CAF1000413E0119801244AA3012832
:102E200001D16FEA0B010298119AC0E90031C0E9A3
:102E3000024206B0BDE8F09FCBF10000DFE7044698
:102E40000021404A491842EB0450CDE9001012E03D
:102E5000E00707D032463B4640464946FDF705FBB2
:102E60008046894632463B4610461946FDF7FDFA34
:102E700006460F466410002CEAD1DDE90401DDE9C5
:102E80000023BAF1000F06DAFDF7EFFA42464B468F
:102E9000FDF7EBFA05E0FDF75AFB42464B46FDF71E
:102EA00056FB04460E460022284BFDF7D7FB03D8FD
:102EB0004FF0FF30014607E00022254B2046314607
:102EC000FDF72CFAFDF7B2FB102409E0002C0ADB19
:102ED0000A220023FDF7B9F9039B30321A55641E0C
:102EE00050EA0102F2D1641C039AC4F111031444A4
:102EF000119A012A03D0012208430DD10AE00843A8
:102F000004D000204FF0110B119072E7A3EB0B05DA
:102F10006D1E0DE05B4504DD4FF0000205F101057B
:102F200004E003DA4FF00002A5F10105002AECD01D
:102F300002981199C0E90231C0E9004579E7000023
:102F4000000014400000F03F300000000000F0439B
:102F50000000E03F2DE9FF4F95B09B4689460646AD
:102F600000250FE2252877D100242746F84A0121C1
:102F7000059400E0044316F8013F203B01FA03F0FA
:102F80001042F7D130782A2811D06FF02F03307813
:102F9000A0F13002092A16D8059A44F0020402EB87
:102FA000820203EB42021044761C0590EFE759F8C9
:102FB000042B0592002A03DA504244F40054059091
:102FC00044F00204761C30782E2816D116F8010F32
:102FD00044F004042A280DD06FF02F023078A0F1BD
:102FE0003003092B09D807EB870302EB4303C7180B
:102FF000761CF3E759F8047B761C30786C280FD0E8
:1030000006DC4C2817D068280DD06A2814D104E0BB
:10301000742810D07A280FD10DE044F400140AE08F
:1030200044F4801401E044F440147278824202D1E6
:1030300004F58014761C761C307866280BD013DCDF
:10304000582877D009DC002875D04528F6D04628C6
:10305000F4D047281AD19DE118E0632835D06428C0
:1030600079D0652812D195E1702873D008DC6728E3
:10307000F1D069286FD06E280DD06F2806D1B5E049
:1030800073282CD0752875D0782874D05A46179993
:1030900090476D1C75E1C4F30250022809D0032843
:1030A0000DD0D9F8001004280DD00D6009F10409E5
:1030B00067E1D9F80010EA17C1E90052F6E7D9F83C
:1030C00000100D80F2E70D70F0E719F8041B8DF881
:1030D000001000208DF80100EA46012003E059F8B5
:1030E00004AB4FF0FF3061074FF0000102D40DE058
:1030F00008F101018846B9420FDA8045F8DB1AF879
:1031000008100029F4D108E008F101018846814245
:10311000FADB1AF808100029F6D105985B46A0EBF7
:10312000080721463846179A00F094FA284400EB25
:10313000080507E04DE029E10DE01AF8010B5A46B9
:1031400017999047B8F10108F7D25B4621463846F7
:10315000179A13E142E00A220092C4F302524FF0A0
:10316000000A022A08D059F804CB032A4FEAEC716E
:103170000AD00DE029E02AE009F1070121F0070259
:10318000F2E802C1914609E00FFA8CFC4FEAEC71BB
:10319000042A03D14FFA8CFC4FEAEC71002907DABC
:1031A0000A460021DCF1000C61EB02012D2202E055
:1031B000220504D52B228DF80420012203E0E2072A
:1031C00001D02022F7E7904659E00A2102E01022C0
:1031D0000DE010214FF0000A00910BE010224FF09B
:1031E000000A44F004040827009203E008224FF08C
:1031F000000A0092C4F30252022A05D059F804CB07
:103200000021032A08D009E009F1070121F0070293
:10321000F2E802C1914605E01FFA8CFC042A01D1B4
:103220000CF0FF0C4FF00008220728D5702806D0BC
:10323000009B83F0100353EA0A0305D00EE04022FE
:103240008DF80420012208E05CEA010206D0302259
:103250008DF804208DF8050002229046009B83F033
:10326000080353EA0A030AD15CEA010201D16207AA
:1032700005D530228DF804204FF001087F1E582814
:1032800004D034A003900EA802900DE036A0F9E718
:1032900053466046009AFCF7D8FF84460398825C48
:1032A0000298401E029002705CEA0100F0D1029880
:1032B00006A9081A00F1200A600702D524F4803418
:1032C00000E00127574502DDA7EB0A0000E00020DF
:1032D00000EB0A01009005984144401A0590E00374
:1032E00006D45B462146179A059800F0B3F90544C9
:1032F000002706E001A85A46C05D179990476D1C4B
:103300007F1C4745F6DBE0030CD55B462146179A48
:10331000059800F09FF9054404E030205A461799BB
:1033200090476D1C0099481E00900029F5DC08E0CC
:10333000029802995A460078491C029117999047C1
:103340006D1CBAF10001AAF1010AF1DC65E100008F
:10335000092801003031323334353637383961626B
:10336000636465660000000030313233343536372F
:1033700038394142434445460000000000F058F906
:103380000544761C307800287FF4ECAD19B028464F
:10339000BDE8F08F620700D4062709F1070222F08A
:1033A000070CFCE80223E14603F000485FEA080C42
:1033B00002D00FF2702C0DE05FEA045C02D50FF230
:1033C000682C07E05FEAC47C02D00FF2602C01E0B9
:1033D000AFF2700C4FF0FF3823F00043CDF850C02F
:1033E00065280CD006DC452809D046281DD0472882
:1033F0003DD13DE0662818D067287ED138E0002115
:10340000112F01DB112000E0781CCDE9000106A995
:103410000EA8FFF7DDFCDDE90F010E9A03910021F4
:10342000009207F1010A04914DE04FF0004000972F
:10343000CDE9011006A90EA8FFF7CAFCDDE90F02CD
:1034400003920E9B11990022DDF80CA000930492C8
:1034500011B9791C00EB010AB7EB0A0004D4C0F1E2
:10346000FF3007F1010A0490AAEB0700019044E045
:10347000012F00DA01270021112F01DD112000E0CA
:103480003846CDE9000106A90EA8FFF7A1FCDDE949
:103490000F010E9A0391002104910092BA46210770
:1034A0000CD40399514500DA8A46BAF1010F05DDC3
:1034B000009AAAF10101515C302908D0B84202DA21
:1034C00010F1040F06DA0121CDE9011015E0AAF18F
:1034D0000101E9E7002805DC049901440491AAEB05
:1034E000000102E0411C514500DD8A460499401A62
:1034F000401C01904FF000400290200704D4019836
:10350000504501DBCDF8048000208DF84F00029873
:103510000DF14F07B0F1004F25D02B200E900298EF
:103520004FF0020800280CDA404202902D200E9045
:1035300007E00A210298FCF772FE3031029007F88A
:10354000011DB8F10001A8F10108F2DC0298002881
:10355000EFD1791E0E980870307800F0200040F00E
:10356000450007F8020D12A8C01B00F107081498C7
:10357000007800B1012000EB0A01019801EBE07135
:1035800005984144401A401E0590E00306D45B466E
:103590002146179A059800F05DF8054414980078C4
:1035A00018B15A46179990476D1CE00324D55B4625
:1035B0002146179A059800F04DF805441CE0049840
:1035C000002807DBDDE90301884203DD0098405C49
:1035D000179901E0179930205A469047049805F151
:1035E0000105401C04900198401E019004D12E203A
:1035F0005A46179990476D1CBAF10001AAF1010AC9
:10360000DDDC05E017F8010B5A46179990476D1C51
:10361000B8F10001A8F10108F4DC5B462146179AD5
:103620000598ABE62D0000002B00000020000000F4
:103630002DE9F041044600251E461746880404D4AF
:1036400005E039462020B0476D1C641EF9D5284698
:10365000BDE8F0812DE9F041044600251E46904664
:10366000C80301D5302700E02027880404D505E0F1
:1036700041463846B0476D1C641EF9D52846BDE862
:10368000F0814A68002A06D00A68531C0B6010704B
:103690004868401E486070470A68531C0B601070F1
:1036A0007047000010B5002821D0114B0022001FE8
:1036B000196803E0814203D80A4649680029F9D114
:1036C00052B11368841A9C4204D1006818441060F7
:1036D000104602E0506000E0186039B102680B1A31
:1036E000934203D10B681A4402604968416010BDDF
:1036F0003C02002000250024FDF7C4FDFDF7B2FBCD
:1037000002E06420FDF755FBFEF76EFC0028F8D1BF
:10371000FDF766FAFA20FDF74CFBFDF757FA5DE07E
:10372000FEF7DCF92E4800782E490988884205DD2D
:103730002D48006838B9FDF7DBFD04E02A48006831
:1037400008B9FDF7CDFD29488088294909888842B4
:103750000DDD0120274908602748006808B9FDF7FA
:10376000E7FD2648006878B9FDF7D2FD0CE000209F
:10377000204908602048006808B9FDF7D1FD1F48BE
:10378000006808B9FDF7BCFD1D4800781D4909888F
:10379000884205DA1548C0881B490988884202DA40
:1037A000FDF71EFA01E0FDF711FA0D491448FDF787
:1037B00088FA681C80B20546042804DBFEF726FF61
:1037C0000025FDF719FB0320FDF724FB044614B187
:1037D0002046FEF7C5FD0A20FDF7EBFAA0E7000042
:1037E000A3010020A60100202C02002014000020CC
:1037F000A80100203002002024020020280200201E
:10380000A2010020A4010020AA010020F0B50B3085
:10381000154D20F007010024144A0FE003688B4285
:103820000BD38B4205D95E1A43184768C3E900677A
:1038300000E04368136002C004E0021D1068002825
:10384000ECD12046002802D1286808B10020F0BD44
:10385000064A07481060074A121A22F00702C0E918
:10386000002401202860D7E7400200203C0200200D
:10387000CC020020C804002010B520221021012015
:10388000FEF722FB002201210846FEF7DDFA0122A5
:1038900003211046FEF7D8FA022201211046FEF756
:1038A000D3FA012203210220FEF7CEFA04220121DD
:1038B0000320FEF7C9FA062201210420FEF7C4FA0C
:1038C000592209210320FEF7FFFA5822092104207A
:1038D000FEF7FAFA1A491B48FDF7F3F902231948D3
:1038E000027806210120FEF729FB02231448027802
:1038F00006211846FEF722FB6420FDF75AFA12480B
:103900008288042319460320FEF718FB6420FDF784
:1039100050FA0D48C288042319461846FEF70EFBDC
:103920000948028804230B210320FEF707FB064801
:10393000428804230B211846FEF700FB10BD00004F
:10394000A3010020A20100201400002010B50022D5
:1039500001210846FEF778FA012203211046FEF7FE
:1039600073FA022201211046FEF76EFA01220321AA
:103970000220FEF769FA042201210320FEF764FA0F
:10398000062201210420FEF75FFA02231048028874
:1039900006210120FEF7D2FA02230E4802880621F2
:1039A0001846FEF7CBFA04230B4802881946032079
:1039B000FEF7C4FA04230948028819461846FEF7A0
:1039C000BDFA07A20C210120FEF7DAFA10BD0000B3
:1039D000A4010020A6010020A8010020AA010020C7
:1039E0003C00000010B5002201210846FEF72CFA29
:1039F000012203211046FEF727FA02220121104678
:103A0000FEF722FA012203210220FEF71DFA04220A
:103A100001210320FEF718FA062201210420FEF7F7
:103A200013FA02231048028806210120FEF786FAC5
:103A300002230E48028806211846FEF77FFA042367
:103A40000B48028819460320FEF778FA0423094838
:103A5000028819461846FEF771FA07A20C210220C7
:103A6000FEF78EFA10BD0000A4010020A601002080
:103A7000A8010020AA0100203C00000010B500228F
:103A800001210846FEF7E0F9012203211046FEF766
:103A9000DBF9022201211046FEF7D6F901220321AB
:103AA0000220FEF7D1F9042201210320FEF7CCF910
:103AB000062201210420FEF7C7F9022310480288DC
:103AC00006210120FEF73AFA02230E480288062159
:103AD0001846FEF733FA04230B48028819460320E0
:103AE000FEF72CFA04230948028819461846FEF707
:103AF00025FA07A20C210320FEF742FA10BD0000B0
:103B0000A4010020A6010020A8010020AA01002095
:103B10003C00000010B5002201210846FEF794F990
:103B2000012203211046FEF78FF9022201211046DF
:103B3000FEF78AF9012203210220FEF785F904220B
:103B400001210320FEF780F9062201210420FEF75F
:103B50007BF902231048028806210120FEF7EEF9C6
:103B600002230E48028806211846FEF7E7F90423CF
:103B70000B48028819460320FEF7E0F904230948A0
:103B8000028819461846FEF7D9F907A20C2104202D
:103B9000FEF7F6F910BD0000A4010020A6010020E8
:103BA000A8010020AA0100203C00000010B5234815
:103BB000007870B122480088B0F5C87F09DB204842
:103BC000008840F6AC51884203DC00201B49087095
:103BD00021E01B480088B0F5C87F0BDA194800883F
:103BE000401C184908806420FDF7E3F801201349C0
:103BF000087010E01248008840F6AC5188420ADD97
:103C000010480088401E0F4908806420FDF7D1F855
:103C100001200A490870002202210846FEF714F923
:103C2000012204210220FEF70FF902230548028831
:103C300007211846FEF782F910BD0000A1010020FF
:103C400014000020A401002010B52348007870B1B2
:103C500022480088B0F5C87F09DB2048008840F67C
:103C6000AC51884203DC00201B49087021E01B484E
:103C70000088B0F5C87F0BDA19480088801C184905
:103C800008806420FDF795F801201349087010E0C2
:103C90001248008840F6AC5188420ADD104800887E
:103CA000801E0F4908806420FDF783F801200A492F
:103CB0000870022211461046FEF7C6F801220421C0
:103CC0000220FEF7C1F802230548028807211846A2
:103CD000FEF734F910BD0000A101002014000020FF
:103CE000A601002010B52248007890B12148008834
:103CF000B0F5C87F0DDB1F48008840F6AC51884204
:103D000007DC00201A49087010211B48FDF7AFFAA4
:103D100021E018480088B0F5C87F0BDA1748008802
:103D20003230164908806420FDF743F8012010491D
:103D3000087010E00F48008840F6AC5188420ADD58
:103D40000E48008832380D4908806420FDF731F8AC
:103D5000012007490870042205210220FEF774F8AB
:103D600004230648028807210220FEF7E7F810BD69
:103D7000A10100201400002000080140A80100203B
:103D800010B52248007890B121480088B0F5C87F6E
:103D90000DDB1F48008840F6AC51884207DC00204C
:103DA0001A49087010211B48FDF761FA21E01848F4
:103DB0000088B0F5C87F0BDA174800883230164902
:103DC00008806420FCF7F5FF01201049087010E01E
:103DD0000F48008840F6AC5188420ADD0E48008842
:103DE00032380D4908806420FCF7E3FF01200749C1
:103DF0000870062205210220FEF726F80423064853
:103E0000028807210220FEF799F810BDA1010020C9
:103E10001400002000080140AA010020000000005A
:103E2000000000000000000000000000000000F89A
:103E300000000000000000333000000000100C06FD
:103E4000100C0600000000000000000040C0784098
:103E5000C0784000043F04043F040400007088FC64
:103E600008300000001820FF211E0000F008F000BC
:103E7000E018000000211C031E211E0000F008882D
:103E8000700000001E2123241927211010160E0097
:103E9000000000000000000000000000000000E042
:103EA0001804020000000007182040000002041857
:103EB000E00000000040201807000000404080F0B3
:103EC000804040000202010F01020200000000F0E9
:103ED000000000000101011F0101010000000000BD
:103EE0000000000080B07000000000000000000032
:103EF00000000000000101010101010100000000BB
:103F00000000000000303000000000000000000051
:103F100080601804006018060100000000E010082E
:103F20000810E000000F102020100F00001010F803
:103F3000000000000020203F202000000070080842
:103F400008887000003028242221300000300888C2
:103F5000884830000018202020110E000000C020EA
:103F600010F8000000070424243F240000F808880B
:103F7000880808000019212020110E0000E0108898
:103F800088180000000F112020110E0000380808CA
:103F9000C83808000000003F0000000000708808DA
:103FA00008887000001C222121221C0000E010085B
:103FB0000810E0000000312222110F00000000C0B4
:103FC000C000000000000030300000000000008051
:103FD0000000000000008060000000000000804041
:103FE000201008000001020408102000404040405A
:103FF00040404000040404040404040000081020AD
:1040000040800000002010080402010000704808F1
:104010000808F0000000003036010000C030C82859
:10402000E810E0000718272423140B000000C03814
:10403000E0000000203C23020227382008F888888E
:1040400088700000203F202020110E00C03008089A
:1040500008083800071820202010080008F8080871
:104060000810E000203F202020100F0008F888886A
:10407000E8081000203F20202320180008F8888836
:10408000E8081000203F200003000000C0300808AE
:104090000838000007182020221E020008F8080037
:1040A0000008F808203F210101213F20000808F8FE
:1040B000080800000020203F202000000000080821
:1040C000F8080800C08080807F00000008F888C0E1
:1040D00028180800203F20012638200008F8080092
:1040E00000000000203F20202020300008F8F800C9
:1040F000F8F80800203F003F003F200008F830C0DB
:104100000008F808203F200007183F00E0100808CA
:104110000810E0000F10202020100F0008F80808F9
:104120000808F000203F210101010000E01008080C
:104130000810E0000F18242438504F0008F8888831
:1041400088887000203F2000030C30200070880811
:10415000080838000038202121221C00180808F81F
:10416000080818000000203F2000000008F80800A0
:104170000008F808001F202020201F000878880071
:1041800000C83808000007380E010000F80800F8E1
:104190000008F800033C0700073C0300081868808B
:1041A0008068180820302C03032C30200838C80001
:1041B000C83808000000203F200000001008080850
:1041C000C83808002038262120201800000000FEF2
:1041D000020202000000007F40404000000C30C09E
:1041E00000000000000000010638C00000020202CA
:1041F000FE000000004040407F000000000004027C
:1042000002020400000000000000000000000000A6
:104210000000000080808080808080800002020496
:10422000000000000000000000000000000080808E
:10423000808000000019242222223F2008F80080FC
:1042400080000000003F112020110E0000000080BF
:1042500080800000000E112020201100000000804E
:104260008088F800000E112020103F200000808080
:1042700080800000001F222222221300008080F094
:10428000888888180020203F2020000000008080BF
:1042900080808000006B94949493600008F8008004
:1042A00080800000203F210000203F20008098985F
:1042B000000000000020203F2020000000000080BF
:1042C0009898000000C08080807F000008F80000FF
:1042D00080808000203F24022D302000000808F854
:1042E000000000000020203F20200000808080800F
:1042F00080808000203F20003F20003F80800080A1
:1043000080800000203F210000203F2000008080AE
:1043100080800000001F202020201F00808000805F
:104320008000000080FFA12020110E00000000800E
:1043300080808000000E112020A0FF8080808000FF
:104340008080800020203F2120000100000080802C
:10435000808080000033242424241900008080E021
:10436000808000000000001F2020000080800000EE
:1043700000808000001F202020103F2080808000CF
:104380000080808000010E300806010080800080DF
:10439000008080800F300C030C300F000080800004
:1043A000808080000020312E0E312000808080002F
:1043B0000080808080818E701806010000808080DF
:1043C000808080000021302C22213000000000007D
:1043D000807C020200000000003F4040000000001E
:1043E000FF00000000000000FF0000000002027C4F
:1043F000800000000040403F000000000006010176
:1044000002020404000000000000000000404040E0
:104410004040404040404141414141404040404097
:104420004040404040404040404040404005020243
:104430000202020202020202020202020220202002
:10444000202020202020200202020202020290905E
:10445000909090901010101010101010101010105C
:1044600010101010101010100202020202028888B0
:1044700088888888080808080808080808080808BC
:1044800008080808080808080202020240000000A4
:104490000D440008B4440008000000204802000059
:1044A00090080008384600084802002080060000F6
:1044B000C02D0008412D01020304048009060708ED
:1044C0000902040608251060028C2BFE920132FEC0
:1044D000180A04047E01407E42427E0234427E403D
:1044E0002809FC242424FC25262408120448104012
:1044F000308F80844C55252525554C80808040493F
:104500003F7940080B214448507F40407F50484449
:1045100040200F0C442414040506040414244414FD
:104520000C1C404041012A7F051A403F4E20104C90
:10453000475401D4D40404350F3040F033C0381A46
:10454000FF39332018100880814020100C033E03EF
:104550000C10204060180804C4040405F604011A75
:10456000C4602D80804241212D0C10224120111861
:104570000940424242C27E42C20729704A803F112E
:104580001B3F40012270171010F01F10F01009801F
:104590008282E2928A86801F402215081661376364
:1045A000807F280B0424242526E43C242625DF11C3
:1045B000180B41211189858B8989F98901138101A2
:1045C00019771D84E43C27FC1B24E40C111404021D
:1045D000011BFF09015B49894161122D1232456CB3
:1045E00007DC0532011379381A083E2A0211134DEF
:1045F00039130802340103061AE50C1203340204CD
:1046000007137D3A1308043403010813153B2E08E1
:1046100005010505301AAD0C2D06010606301349BB
:104620003C2E0807010707301AE50C2D0801080881
:084630003013813D2907012D23
:04000005080000ED02
:00000001FF
